:020000040000FA
:020000000B28CB
:10000800DE00030E8312A1000A08A2009B280C2818
:100018008312AB01A601A701A801A901AA018301C6
:10002800512900308A000408840A820700344834C1
:10003800FD343F34FD343B34FD343734FD34323441
:10004800FD343934FD343F34FD343B34FD3437342A
:10005800FD343E34FD344534FD344C34FD345434E1
:10006800FD345034FD345834FD346034FD34633489
:10007800FD345C34FD344F34FD344234FD343434C3
:10008800FD342534FD341634FD340734FD34FC3496
:10009800FC34F134FC34E634FC34D934FC34CD344B
:1000A800FC34C334FC349634FC346834FC340534F2
:1000B800FC343034FA344134F8343434F6349B3474
:1000C800F434BC34F134BA34EF344334EC34C4344B
:1000D800EA340834E934A434E7349134E4342B3472
:1000E800E334A134E1342D34DF344C34DC34E834E7
:1000F800DA346734D9343434D734C434D334A734F5
:10010800D0341034CE346534CA345634C634FA3454
:10011800C2345C34BF347434BB34B734B834473475
:10012800B4343534B134FF34AD34A634A8340B1AA2
:100138008B1CB1288B10AB1DAC280108A00020082F
:10014800A6002C08A0002008A7002B150B12AD282C
:10015800AB158101AC010B118B168B1A0B1DCD2829
:100168000B110130A0002008AC072C08031DCD2876
:100178000B118B1210100C1083160C10FC3083120C
:10018800A00020088505AB112B11AB102B108B108C
:100198000B1683160C1CDC2883120C1CDC28101090
:1001A8000C1083160C10FF3083128500AB102B1433
:1001B800831222088A00210E8300DE0E5E0E0900DB
:1001C8002B115D30A6020130031CA703A702803063
:1001D8002702031CF3287830A800FD3016292708C9
:1001E8000319022921302702031CFD288B100B1646
:1001F800080027081F3EA30023080D292608A3008E
:1002080003300310A30CFF3E031D05292308A40097
:100218002408AA002A08A3002307013E8400152009
:10022800A8001520A900AB1429088F0028088E0003
:1002380010140C1083160C1408000B138B130730C2
:100248008312990083169F01FF3083128500FF30C7
:100258008316850096019501FC308312A3002308BC
:1002680083168505FC308312A30023088505C0305A
:1002780083168100C0308312A300230883168105EA
:1002880003308312A300230883168104831290018C
:100298008E018F018B100B1608006400212170213C
:1002A8000B178B17640083122B1D5B29E420831224
:1002B800AB1C602964005B292B1C56294230A50021
:1002C800A50B64290000FC308312A50025088505CC
:1002D8002B108B100B165629AB112B11AB102B10B2
:1002E800FF30A3002308AC00AA01FF30A800FF30AC
:0802F800A900A601A7010800FE
:02400E00C931B6
:00000001FF
